:020000040800F2
:10000000F836002001010008D51F0008D51F0008A0
:10001000D51F0008D51F0008D51F000800000000EC
:10002000000000000000000000000000D51F0008D4
:10003000D51F000800000000D51F00081946000861
:100040001B0100081B0100081B0100081B01000820
:100050001B0100081B0100081B0100081B01000810
:100060001B0100081B0100081B010008991500086E
:10007000B9150008D9150008051600083116000842
:100080005D160008891600081B0100081B01000806
:10009000BD7600081B0100081B0100081B010008B9
:1000A0001B0100081B0100081B0100081B010008C0
:1000B0001B0100081B0100081B0100081B010008B0
:1000C0001B0100081B0100081B0100081B010008A0
:1000D0001B010008D1480008E14900081B01000885
:1000E0001B0100081B0100081B010008DFF80CD0F1
:1000F00000F03CF800480047D1780008F8360020AE
:100100000648804706480047FEE7FEE7FEE7FEE7B1
:10011000FEE7FEE7FEE7FEE7FEE7FEE7A54700088D
:10012000ED00000840EA01039B0703D009E008C97D
:10013000121F08C0042AFAD203E011F8013B00F8AC
:10014000013B521EF9D27047D2B201E000F8012BF8
:10015000491EFBD270470022F6E710B513460A4647
:1001600004461946FFF7F0FF204610BD064C074D28
:1001700006E0E06840F0010394E807009847103477
:10018000AC42F6D3FFF7B6FF98800008B8800008AD
:1001900010B50A48806940F01C0008498861084988
:1001A000084801F0D9FC0849084801F0D5FC084985
:1001B000084801F0D1FC02F09FFF10BD0010024082
:1001C0007C7D000800080140807D0008000C014093
:1001D000847D00080010014038B51B49C86A80477B
:1001E0000090C0F3400068B3184804681649486A94
:1001F0008047044416480068241AB4F5806F05DB74
:10020000134800682044124908600024002C19DDBE
:100210000F480068C0F30900C0F58065AC4200DDFE
:100220002C460B490968C1F309010A4A881821467E
:1002300005F048FE0446002C04DD05480068204413
:100240000349086038BD0000447E000850000020CB
:1002500054000020F822002070B505460E4628788C
:1002600008B9022400E02C78012C02D0022C0CD119
:1002700005E001200849087003F006F907E00220B4
:100280000549087003F0BCF801E0002400BF00BF7E
:1002900034704FF0011070BDF800002030B50246F8
:1002A0000B461078547840EA04210B4800680B4C48
:1002B000B0FBF4F0801C0324B0FBF4F0414308468B
:1002C000044600BF00BF651E2C1EFCD100BF0020ED
:1002D0001870034830BD00000C00002040420F00A1
:1002E0000100020010B5044600200449087003F024
:1002F000AFF800202070012010BD0000F8000020A1
:1003000030B502461546521C12F8014B0BE012F8AC
:10031000013B03F0020020B103F0100010B1121DE8
:1003200000E0121D641E002CF1D1002008704870FE
:10033000501B0004801C30BD70B504460D4620786B
:1003400010B1012810D107E0627802F001000B4AD9
:100350001268116888470BE0627802F00100074AD2
:1003600012685168884703E0FF202870044870BD78
:1003700000BF002028700248F9E7000004000020B8
:100380000100020070B506460C460025062E1FD05F
:1003900006DC062E34D2DFE806F033101112131AF1
:1003A000FD2E22D004DCF02E13D0F12E28D11BE03C
:1003B000FE2E21D0FF2E23D118E022E021E020E004
:1003C00006252A4610492046FFF7ACFE19E018E042
:1003D00017E00E48006808B1202000E0002040F03F
:1003E0001300207001250CE00BE00AE04020207093
:1003F00000206070022504E040202070012500E00C
:1004000000BF00BF284670BD887D00080C0000209A
:10041000F0B502460E4612F8013B124883760025DD
:10042000002109E012F8014B0E481C3044540830FA
:1004300020F811502544491C9942F3D3002108E0CB
:1004400008481C30405C2D1A0648343020F8115002
:10045000491C9942F4D300203070581C0004401C01
:10046000F0BD0000F800002070B506460C461248AA
:100470000078022800D019E031780F48C176C07E9C
:100480000D49897E884200DB10E00E2001F0E6FD78
:1004900001F0DEFF0546002020706570280AA0707C
:1004A000280CE070280E2071044870BDFF202070D9
:1004B0004FF00110F9E70000F800002005000100EE
:1004C0002DE9F04704460E46002006F8010B4FF0D8
:1004D00001084FF0010914F801AB14E014F8017B96
:1004E00007F03F0505B94025E81DC50832462146FD
:1004F000384602F081F82C44681C804407F08000E4
:1005000008B12E44A944BAF10000AAF1010AE5D1CC
:1005100049EA0840BDE8F0872DE9F04F87B005466D
:100520000C4606950020049000260594A41CE4497E
:1005300008708146039015F8011BE248C176C07E21
:10054000E049897E884200DBABE115F801BB4AE156
:1005500015F8017B07F0010008B10B2000E00A202C
:10056000824607F00200002879D00398002846D080
:10057000D448B0F81080D14514D107F0100088B9E4
:1005800000BF6946384602F087F80646022E24D19D
:10059000B8F10000A8F101081FD0C9480078002870
:1005A000EFD01AE0B9F10A0F04D04FF00A0948461B
:1005B00001F054FD00BF69460E2002F06DF80646BA
:1005C000022E08D1B8F10000A8F1010803D0BC4800
:1005D00000780028EFD000200390012E00D006E123
:1005E000009804F8010B0098000A04F8010B009829
:1005F000000C04F8010B0098000E04F8010B07F042
:100600001000002860D02878697840EA0120A97895
:1006100040EA0140E97840EA016002902D1DA948B6
:10062000408A0190D14503D0D146484601F016FDDD
:10063000A448B0F8108000BF0021384602F02CF822
:100640000646022E08D1B8F10000A8F1010803D037
:100650009B4800780028EFD0012E01D0C7E056E07B
:1006600000BF9848B0F8108000BF6946384602F0D5
:1006700013F80646022E08D1B8F10000A8F10108CF
:1006800003D08F4800780028EFD0012E00D00EE074
:100690008C484069009908400299884207D0019827
:1006A000411E019118B1864800780028D9D000BFBA
:1006B00084484069009908400299884201D046F078
:1006C0001006012E22D092E0039800281ED1D145B9
:1006D00003D0D146484601F0C1FC7A48B0F81080FA
:1006E00000BF0021384601F0D7FF0646022E08D190
:1006F000B8F10000A8F1010803D071480078002883
:10070000EFD0012E00D072E00120039062E0039848
:1007100078B3B9F10A0F04D04FF00A09484601F046
:100720009DFC6848B0F8108000BF69460E2001F0BB
:10073000B3FF0646022E08D1B8F10000A8F1010867
:1007400003D05F4800780028EFD0012E00D04EE0A3
:10075000009804F8010B0098000A04F8010B0098B7
:10076000000C04F8010B0098000E04F8010B0020A7
:1007700003902878697840EA0120A97840EA01408E
:10078000E97840EA016000902D1D07F0200020B1BB
:100790004C480099416101261CE0D14503D0D14667
:1007A000484601F05BFC4748B0F8108000BF69463E
:1007B000384601F071FF0646022E08D1B8F100005C
:1007C000A8F1010803D03E4800780028EFD0012EA0
:1007D00000D00CE00498401C04903948007800B127
:1007E00005E0ABF1010BBBF1000F7FF4B1AE00BF30
:1007F0000CE015F8017B07F0020020B107F01000B3
:1008000010B12D1D00E02D1DABF1010BBBF1000F50
:10081000EFD1012E44D1B9F10A0F04D04FF00A09EB
:10082000484601F01BFC039830B32648B0F810800E
:1008300000BF69460E2001F02FFF0646022E08D1A8
:10084000B8F10000A8F1010803D01D480078002885
:10085000EFD0012E00D024E0009804F8010B00989E
:10086000000A04F8010B0098000C04F8010B009832
:10087000000E04F8010B13E01248B0F8108000BF1E
:1008800000210E2001F008FF0646022E08D1B8F123
:100890000000A8F1010803D0094800780028EFD033
:1008A00000BF0498C1B2059801700598467005987C
:1008B000211A0698281A41EA004007B0BDE8F08FD7
:1008C00020000020F80000202DE9FC5F04460D46C2
:1008D0004FF0000B0026A846ED1C00206049087070
:1008E00014F8011B5F48C176C07E5E49897E88424C
:1008F00000DBA9E02078617840EA0127A41C07B951
:10090000A2E014F801AB0AF0010008B10B2000E0EE
:100910000A200090009801F0A1FB0AF002000028D4
:100920004DD05048B0F8109000BF0021504601F063
:10093000B3FE0646022E08D1B9F10000A9F1010963
:1009400003D0474800780028EFD0012E00D07BE08C
:1009500030E03FB900980A2802D00A2001F07EFB5F
:100960004FF00E0A3F48B0F8109000BF01A9504662
:1009700001F092FE0646022E08D1B9F10000A9F15D
:10098000010903D0364800780028EFD0012E00D0AE
:100990005AE0019805F8010B0198000A05F8010BCF
:1009A0000198000C05F8010B0198000E05F8010BE9
:1009B0000BF1010B381EA7F10107CAD143E024E077
:1009C0002078617840EA0120A17840EA0140E1788E
:1009D00040EA01600190241D2248B0F8109000BF49
:1009E00001A9504601F058FE0646022E08D1B9F181
:1009F0000000A9F1010903D0194800780028EFD0C0
:100A0000012E00D020E00BF1010B381EA7F10107E9
:100A1000D6D100980A2802D00A2001F01FFB114805
:100A2000B0F8109000BF00210E2001F035FE064600
:100A3000022E08D1B9F10000A9F1010903D008483C
:100A400000780028EFD000BF88F800B04FEA1B20E4
:100A500088F8010088F80260A5EB0800BDE8FC9F5B
:100A600020000020F800002070B504460D462178D3
:100A70000F48C176C07E0E49897E884203DBFF2085
:100A80002870012070BD082001F0E8FA6078A17894
:100A900040EA0120E17840EA0140217940EA01661C
:100AA000304602F0BFF9002028700120EAE700007C
:100AB000F800002070B505460E462878802807D338
:100AC00028789F2804D83146284600F091F870BD58
:100AD000287806F8010B15F8010B1E287ED2DFE8F6
:100AE00000F00F181E24646A717D77292F7D7D7DAB
:100AF0007D7D343A404652585E7D7D7D7D7D7D4CC6
:100B00002878711CFFF73EFC0446347004F1021093
:100B1000DDE731462846FFF70FFC044664E0314626
:100B20002846FFF799FB04465EE03046FFF7DAFB04
:100B3000044659E031462846FFF7B0FB044653E02F
:100B4000304600F05BF804464EE03146284600F09F
:100B50009DFB044648E03146284600F05BFB044616
:100B600042E03146284600F04DFC04463CE0314668
:100B7000284600F04BF8044636E03146284600F09F
:100B800059F8044630E031462846FFF799FC044600
:100B90002AE031462846FFF73BFC044624E0314674
:100BA0002846FFF761FC04461EE03146284600F067
:100BB000B9FC044618E03146284600F05FFC0446C4
:100BC00012E00BE03146284600F07AFC04460BE0C8
:100BD0003146284600F0BEFC044605E0FF2006F83A
:100BE000010C4FF0011072E700BF04F101106EE735
:100BF0000246FF2008704FF001107047014600BF09
:100C000001204870002008700220704710B502468D
:100C1000137803F00300401C054C2076C3F38004D6
:100C200003484476002008704FF0011010BD00000A
:100C3000F80000202DE9F04704460E46002006F893
:100C4000010B4FF001084FF0010914F801AB33E03C
:100C500014F8017B07F03F0505B94025E81DC508DC
:100C600007F0800088B100BF00BF00BF17480068D0
:100C700020F0706040F00060144908604FF480403C
:100C800012490C31086000BF01E002F057FB324608
:100C90002146384602F0F0FDBAF1000F01D102F012
:100CA0004DFB07F0800020B108F101082E44A94453
:100CB00002E02C44681C8044BAF10000AAF1010A49
:100CC000C6D149EA0840BDE8F0870000040C0140A5
:100CD0002DE9F04F87B005460C460695002005909B
:100CE0000026A246A41CE0490870834604906D1CAF
:100CF00015F8019B50E115F8017B07F00200002870
:100D00007ED0BBF1000F3DD0D848B0F8108007F07E
:100D10001100012811D100BF01A9384602F00EFED2
:100D20000646022E1CD1B8F10000A8F1010817D028
:100D3000CD4800780028EFD012E000BF01A90E20B6
:100D400002F0FCFD0646022E08D1B8F10000A8F121
:100D5000010803D0C44800780028EFD04FF0000B02
:100D6000012E00D01CE1019804F8010B0198000A43
:100D700004F8010B0198000C04F8010B0198000E17
:100D800004F8010B07F0100000285ED0287869787D
:100D900040EA0120A97840EA0140E97840EA016090
:100DA00003902D1DB148408A029007F00100B0B1B8
:100DB000AE48B0F8108000BF0021384602F0BEFDFA
:100DC0000646022E08D1B8F10000A8F1010803D0B0
:100DD000A54800780028EFD0012E00D0E0E000BF49
:100DE000A248B0F8108000BF01A9384602F0A6FD65
:100DF0000646022E0AD1B8F10000A8F1010800E071
:100E000069E003D0984800780028EDD0012E00D08A
:100E10000EE096484069019908400399884207D03E
:100E20000298411E029118B18F4800780028D7D04F
:100E300000BF8E484069019908400399884201D05B
:100E400046F01006012E43D0AAE08848B0F8108082
:100E500007F00100C8B1BBF1000F39D100BF00217C
:100E6000384602F06BFD0646022E08D1B8F10000AC
:100E7000A8F1010803D07C4800780028EFD0012EAB
:100E800000D08DE04FF0010B22E000BF01A93846F1
:100E900002F054FD0646022E08D1B8F10000A8F178
:100EA000010803D0704800780028EFD0012E00D050
:100EB00076E0019804F8010B0198000A04F8010B90
:100EC0000198000C04F8010B0198000E04F8010BC6
:100ED0000020049057E0BBF1000F27D06348B0F822
:100EE000108000BF01A90E2002F028FD0646022E48
:100EF00008D1B8F10000A8F1010803D05A480078E1
:100F00000028EFD0012E00D04AE0019804F8010B30
:100F10000198000A04F8010B0198000C04F8010B79
:100F20000198000E04F8010B4FF0000B2878697847
:100F300040EA0120A97840EA0140E97840EA0160EE
:100F400001902D1D07F0200020B148480199416112
:100F5000012618E04548B0F8108000BF01A93846C6
:100F600002F0ECFC0646022E08D1B8F10000A8F110
:100F7000010803D03C4800780028EFD0012E00D0B3
:100F80000EE0012004900598401C0590364800783A
:100F900000B105E0A9F10109B9F1000F7FF4ABAE92
:100FA00000BF0CE015F8017B07F0020020B107F04C
:100FB000100010B12D1D00E02D1DA9F10109B9F19E
:100FC000000FEFD1012E3FD1BBF1000F26D02748F3
:100FD000B0F8108000BF01A90E2002F0AFFC064659
:100FE000022E08D1B8F10000A8F1010803D01E4874
:100FF00000780028EFD0012E00D026E0019804F8F8
:10100000010B0198000A04F8010B0198000C04F888
:10101000010B0198000E04F8010B15E0049898B13B
:101020001248B0F8108000BF00210E2002F086FCAC
:101030000646022E08D1B8F10000A8F1010803D03D
:10104000094800780028EFD000BF05988AF8000012
:101050008AF80160A4EB0A010698281A41EA0040C8
:1010600007B0BDE8F08F000020000020F80000204D
:101070002DE9F84F04460D464FF0000B0026A84618
:10108000ED1C002056490870641C2078617840EA05
:10109000012AA41CBAF1000F00D195E014F8017BDD
:1010A00007F0020000284FD007F00100B0B14D4812
:1010B000B0F8109000BF0021384602F03FFC064611
:1010C000022E08D1B9F10000A9F1010903D044486A
:1010D00000780028EFD0012E00D075E02EE0BAF1A4
:1010E000000F03D107F0010000B10E273D48B0F812
:1010F000109000BF6946384602F020FC0646022EDA
:1011000008D1B9F10000A9F1010903D034480078F1
:101110000028EFD0012E00D056E0009805F8010B12
:101120000098000A05F8010B0098000C05F8010B67
:101130000098000E05F8010B0BF1010BBAF100004D
:10114000AAF1010ACBD13EE024E02078617840EAA0
:101150000120A17840EA0140E17840EA0160009076
:10116000241D2048B0F8109000BF6946384602F0B0
:10117000E5FB0646022E08D1B9F10000A9F10109EC
:1011800003D0174800780028EFD0012E00D01BE0D4
:101190000BF1010BBAF10000AAF1010AD5D11148F7
:1011A000B0F8109000BF00210E2002F0C7FB0646E9
:1011B000022E08D1B9F10000A9F1010903D00848B5
:1011C00000780028EFD000BF88F800B04FEA1B205D
:1011D00088F8010088F80260A5EB0800BDE8F88FE8
:1011E00020000020F800002038B504460D46607845
:1011F000A17840EA0120E17840EA0140217940EA03
:10120000016000906946002002F098FB00202870E1
:10121000012038BD30B502460C461078557840EABA
:101220000520957840EA0540D57840EA05631BB96A
:10123000FF202070124830BD12480068B3EB900FB9
:1012400004D30120104D6870686014E000200E4D3A
:101250006870581E0B4D2D6800EB5500B0FBF3F184
:10126000022905D9891E881C0325B0FBF5F100E091
:10127000012105484160002020700148DBE70000A3
:10128000010004000C000020F80000202DE9F047C8
:101290000646884634787578B078F17840EA0120BF
:1012A000317940EA0140717940EA016905F00100B5
:1012B00078B104F0010028B100BF20204D4908603A
:1012C00000BF06E000BF20204A49091D086000BF9A
:1012D00000BF05F0020088B104F0020030B100BF89
:1012E0004FF480404449086000BF07E000BF4FF45E
:1012F00080404149091D086000BF00BF05F004009F
:1013000070B1C4F3870000F0010119B18021394A9E
:10131000116003E08021374A121D116000BF00BF39
:1013200005F0200018B1C4F3471000BF00BF05F05E
:10133000800018B1C4F3C71006F0ACFCB9F1000F7F
:101340003AD04FF0010900BF2C48476800BF00BFEA
:1013500005F0010020B101F07BFF604000B124E006
:1013600005F0020028B102F015F880EA540000B13F
:101370001BE005F0040028B102F01CF880EA94009C
:1013800000B112E005F0200028B100BF002080EA83
:10139000541000B109E005F0800028B102F028F8EF
:1013A00080EAD41000B100E005E000BF13484068B7
:1013B000C01B4845CCD300BF01F04AFF824601F074
:1013C000E9FF4AEA400A01F0F5FF4AEA80010948CC
:1013D00008380068C0F3801041EAC000002140EAEC
:1013E000411A02F005F84AEAC01488F8004004489F
:1013F000BDE8F08710080140100C0140001000E02B
:101400000100060070B504460E4614F8015B0DB9E4
:101410004FF480752146284603F030F800203070E4
:10142000E81DC508681C0004401C70BD10B50020F4
:101430000F49087048700F48006840080E49B0FB1B
:10144000F1F0801E0A4948600020087364210848B2
:101450000182002141824161012005490876002175
:101460000348417600200249887601F0F1FF10BD63
:10147000F80000200C0000208096980070B505460A
:101480000E460E480078012802D002280CD105E053
:1014900031462846FFF71CFC04460BE0314628463F
:1014A000FFF73AF8044605E031462846FEF728FFE4
:1014B000044600BF00BF204670BD0000F8000020B9
:1014C00070B505460E4616480078012802D002285D
:1014D0000CD105E031462846FFF7CAFD04460BE073
:1014E00031462846FFF7F0F9044605E00020307049
:1014F0007070B070032400BF00BFE87800F00200F5
:1015000010B144F4802408E06878A97840EA01200A
:10151000042101EB800044EA0044204670BD000035
:10152000F800002002461078084B18735078937822
:1015300040EA032305480382D078137940EA032365
:10154000024843820020087001487047F8000020DC
:101550000100050070B506460D460D4800780128CB
:1015600002D002280CD105E029463046FFF73CFEA8
:10157000044609E029463046FFF776FA044603E0C0
:10158000FF202870012400BF00BF44F4A02070BDDC
:10159000F80000207047000010B50548006800F012
:1015A0000F04034844602046FFF7F4FF10BD00001D
:1015B000000002407047000010B505480068C0F305
:1015C00003142001024948602046FFF7F3FF10BDD5
:1015D000000002407047000010B505480068C0F3E5
:1015E00003242002024948602046FFF7F3FF10BDA4
:1015F0000000024010B50446014804F092FB10BD03
:10160000B47D000810B505480068C0F3033420031A
:10161000024948602046FFF7EDFF10BD0000024080
:1016200010B50446014804F0E1F910BDB47D00088E
:1016300010B505480068C0F303442004024948601F
:101640002046FFF7EDFF10BD0000024010B5044634
:10165000014804F0CBF910BD0C7E000810B5054818
:101660000068C0F303542005024948602046FFF794
:10167000EDFF10BD0000024010B50446014804F023
:1016800050FB10BD0C7E000810B505480068C0F383
:1016900003642006024948602046FFF7EDFF10BDB5
:1016A0000000024070B505460C46012D71D13A4844
:1016B000406940F0010038494861082C60D2DFE8F9
:1016C00004F05F04101C2936435000203349886021
:1016D0000F2048600B2006F0B3F80B2006F0DCF872
:1016E0004EE000202D49C861F02048600C2006F033
:1016F000A7F80C2006F0D0F842E000202749086344
:101700004FF4706048600D2006F09AF80D2006F046
:10171000C3F835E00020214948644FF47040486028
:101720000E2006F08DF80E2006F0B6F828E0002016
:101730001A4988654FF4702048600F2006F080F841
:101740000F2006F0A9F81BE000201449C8664FF4EA
:1017500070004860102006F073F8102006F09CF826
:101760000EE000200D49803108604FF070600B4999
:101770004860112006F064F8112006F08DF800BFD3
:1017800000BF0120A04006490978084304490870B9
:1017900000BF00BF70BD000000100240000002400A
:1017A0002100002070B505460C46012D4ED1294878
:1017B000007800B970BD082C37D2DFE804F0360499
:1017C0000B121920272E0B2006F048F80020224982
:1017D00088602AE00C2006F041F800201E49C8610C
:1017E00023E00D2006F03AF800201B4908631CE0B6
:1017F0000E2006F033F800201749486415E00F204A
:1018000006F02CF80020144988650EE0102006F040
:1018100025F800201049C86607E0112006F01EF8E0
:1018200000200D498031086000BF00BF0120A040AA
:1018300008490978814307480170007828B90748AA
:10184000406920F001000549486100BF00BF00BFAA
:10185000B0E700002100002000000240001002401C
:101860000749096842F22832B1FBF2F148430146C8
:101870000A4600BF00BF531E1A1EFCD100BF7047AE
:101880000C00002030B500F00F010D4C04EB81037B
:10189000D3F8002C00F0800343B148F6CF73134017
:1018A000254605EB8104C4F8003C07E04CF68F7335
:1018B0001340034D05EB8104C4F8003C30BD00002B
:1018C0000050004070B500F00F02104D05EB82048F
:1018D000D4F8003C00F080045CB101F030045C40BE
:1018E00048F6BF752C40094E06EB8205C5F8004C42
:1018F0000AE001F440545C404BF68F752C40034ED7
:1019000006EB8205C5F8004C70BD00000050004099
:1019100030B5044604254FF4302000F06FF805463A
:10192000042D17D10C48006940F002000A490861F3
:1019300008464461006940F0400008614FF43020DF
:1019400000F05CF805460448006941F6FD71084066
:1019500001490861284630BD0020024004200B499F
:10196000C96801F0010109B101200EE00749C96809
:1019700001F0040109B1022007E00449C96801F03F
:10198000100109B1032000E004207047002002404C
:101990000348006940F08000014908617047000079
:1019A0000020024070B504460D460426F00200F007
:1019B00025F80646042E11D10948006940F00100BF
:1019C000074908612580F00200F018F8064604482F
:1019D000006941F6FE71084001490861304670BD5A
:1019E00000200240024803494860034848607047AD
:1019F0002301674500200240AB89EFCD00B50246C8
:101A00000423FFF7ABFF034603E0FFF7A7FF0346FE
:101A1000521E012B01D1002AF7D102B90523184625
:101A200000BD000018B5002844D0C0F34211C0F337
:101A30000322214B9B6903F001032BB91E4B9B69C9
:101A400043F001031C4CA36100F48053A3B11B4B72
:101A5000DB69009300F01F0301FA03F3009C9C4331
:101A6000009400F01F0302FA03F3009C2343009349
:101A7000124C009BE3611DE0104B5B68009300F08B
:101A80001F0301FA03F3009C9C43009400F01F0322
:101A900002FA03F3009C2343009307210022009BDA
:101AA00023EA01630093009B43EA02630093034C23
:101AB000009B636018BD0000001002400000014060
:101AC00001461D48814204D11C488069C0F3800052
:101AD00070471B48814204D118488069C0F3C00098
:101AE000F6E71848814204D114488069C0F3001019
:101AF000EEE71548814204D110488069C0F34010D8
:101B0000E6E71248814204D10C488069C0F3801096
:101B1000DEE70F48814204D108488069C0F3C01055
:101B2000D6E70C48814204D104488069C0F3002004
:101B3000CEE70020CCE70000000801400010024082
:101B4000000C014000100140001401400018014049
:101B5000001C0140002001402DE9F0410246002513
:101B60000026002000230024002791F803C00CF079
:101B70000F0591F803C00CF0100CBCF1000F03D05E
:101B800091F802C04CEA050591F800C0BCF1000FC5
:101B900031D0146800202BE04FF0010C0CFA00F358
:101BA000B1F800C00CEA03069E4220D183004FF03A
:101BB0000F0C0CFA03F7BC4305FA03FC4CEA0404CF
:101BC00091F803C0BCF1280F06D14FF0010C0CFABC
:101BD00000FCC2F814C00AE091F803C0BCF1480F41
:101BE00005D14FF0010C0CFA00FCC2F810C0401CEB
:101BF0000828D1D31460B1F800C0BCF1FF0F34DD68
:101C0000546800202EE000F1080C4FF0010808FA9B
:101C10000CF3B1F800C00CEA03069E4221D1830008
:101C20004FF00F0C0CFA03F7BC4305FA03FC4CEA27
:101C3000040491F803C0BCF1280F05D100F1080C91
:101C400008FA0CF8C2F8148091F803C0BCF1480FF0
:101C500007D100F1080C4FF0010808FA0CF8C2F89F
:101C60001080401C0828CED35460BDE8F0812DE9D7
:101C7000F04105460C46174698460F2C02D9002025
:101C8000BDE8F0812846FFF71BFF18B9012128465F
:101C900000F02AF8B8F1000F10D1022F05D1E86842
:101CA0000121A1408843E86008E0032F06D127F016
:101CB0000107E8680121A1400843E860082C01D22F
:101CC0002E4601E0083C2E1D3068A2000F219140F5
:101CD0008843306048EA8700A100884031680843A3
:101CE00030600120CCE70000002945D0454A9042F1
:101CF00006D1454A926942F00402434B9A6180E062
:101D0000424A904206D1404A926942F008023E4B54
:101D10009A6176E03E4A904206D13B4A926942F08F
:101D20001002394B9A616CE03A4A904206D1364A29
:101D3000926942F02002344B9A6162E0364A904246
:101D400006D1314A926942F040022F4B9A6158E025
:101D5000324A904206D12C4A926942F080022A4BC4
:101D60009A614EE02E4A90424BD1274A926942F442
:101D70008072254B9A6144E0224A904206D1224A61
:101D8000926922F00402204B9A613AE01F4A904285
:101D900006D11D4A926922F008021B4B9A6130E07D
:101DA0001B4A904206D1184A926922F01002164B43
:101DB0009A6126E0174A904206D1134A926922F0AE
:101DC0002002114B9A611CE0134A904206D10E4A40
:101DD000926922F040020C4B9A6112E00F4A904245
:101DE00006D1094A926922F08002074B9A6108E005
:101DF0000B4A904205D1044A926922F48072024B48
:101E00009A6170470008014000100240000C014038
:101E1000001001400014014000180140001C014066
:101E2000002001402DE9F04704460D464FF0FF0A1F
:101E30002078D02872DB2078D7286FDC207805F84E
:101E4000010B14F8010BD038082868D2DFE800F045
:101E500004121518213356725648076805F8017B9D
:101E6000380A05F8010B380C05F8010B380E05F897
:101E7000010B81E0FFF7B6FD7EE0FFF789FD7BE017
:101E800027683846FFF744FD042801D04FF0FF0AC9
:101E900072E0D4F80080A68806E018F8011BFF293C
:101EA00002D04FF0FF0A04E0301EA6F101018EB20D
:101EB000F3D100BF60E02768A688382E02DD4FF01E
:101EC000FF0A1AE0A41D12E014F8019B2EB114F8C9
:101ED000011B49EA0129701E86B249463846FFF7C0
:101EE00061FD042802D04FF0FF0A05E0BF1C301E40
:101EF000A6F101018EB2E7D100BF3DE0D4F8008029
:101F0000A6883E2E02DD4FF0FF0A12E0002005F801
:101F1000010B09E026B998F800A005E030E027E0C1
:101F200018F8010B05F8010B301EA6F101018EB265
:101F3000F0D121E000BF00BF00BF00BF00BFBFF372
:101F40004F8F00BF00BF00BF1B48006800F4E06077
:101F50001A490843001D1849086000BF00BF00BFB0
:101F6000BFF34F8F00BF00BF00BF00BF00BFFDE742
:101F70006D1E4FF0FF0A00BF00BF85F800A017E0FC
:101F80000F48006890B10F4BDFF83CC0DCF800C090
:101F900003EB8C110D4BDFF838C0DCF800C003EB0D
:101FA0008C10074B1B685A68904701E0FF2028708F
:101FB000BDE8F087002004E00CED00E00000FA0529
:101FC00008000020F812002048000020F80200203D
:101FD0004000002072B61E49086880F3088800BFE0
:101FE00001F08AF8002412E001F0F2F86420FFF713
:101FF00037FC01F0E5F801F0BFF86420FFF730FC92
:1020000001F0B4F84FF47A70FFF72AFC641C052C39
:10201000EADB00BF00BF00BF00BF00BFBFF34F8FB0
:1020200000BF00BF00BF0B48006800F4E0600A4931
:102030000843001D0749086000BF00BF00BFBFF391
:102040004F8F00BF00BF00BF00BF00BFFDE7000013
:10205000000000080CED00E00000FA0510B5044691
:102060000548407818B1204600F008F802E0204604
:1020700000F0A6F810BD0000F800002070B505467D
:1020800001F090F901F0D8F800BF00BF01F0EEF8C0
:1020900000BF00BF01F0D0F800BF00BF01F0E6F8BC
:1020A00000BF00BF01F06EF901F0C6F800BF00BF2D
:1020B00001F0DCF800BF00BF01F0BEF800BF00BFB8
:1020C00001F0D4F800BF00BF012001F07BF93B48CC
:1020D000C17E243030F8114008E001F0ADF800BFB7
:1020E00000BF01F0C3F800BF00BF641E002CF4D194
:1020F0003248C17E1C30405C441E0CE0E8B201F066
:1021000061F901F099F800BF00BF01F0AFF800BF1E
:1021100000BF6D08641E002CF0D12848C17E343009
:1021200030F811402CB3E8B201F04CF901F084F81A
:1021300000BF00BF01F09AF800BF00BF012001F00E
:1021400041F9641E08E001F077F800BF00BF01F01C
:102150008DF800BF00BF641E002CF4D101F022F9FD
:1021600001F06AF800BF00BF01F080F800BF00BFB7
:102170000DE001F017F9E8B201F024F901F05CF884
:1021800000BF00BF01F072F800BF00BF00BF01F048
:1021900053F800BF00BF01F069F800BF00BF01F0B5
:1021A000F1F801F049F800BF00BF01F05FF800BF8F
:1021B00000BF012001F006F970BD0000F80000200A
:1021C00070B5054601F0EEF801F036F89F49486811
:1021D000014600BF00BF4A1E111EFCD100BF01F026
:1021E00045F89A494868014600BF00BF4A1E111EC3
:1021F000FCD100BF01F020F894494868014600BFB7
:1022000000BF4A1E111EFCD100BF01F02FF88F49FC
:102210004868014600BF00BF4A1E111EFCD100BF26
:1022200001F0B0F801F008F888494868014600BF9D
:1022300000BF4A1E111EFCD100BF01F017F88349F0
:102240004868014600BF00BF4A1E111EFCD100BFF6
:1022500000F0F2FF7D494868014600BF00BF4A1EFA
:10226000111EFCD100BF01F001F878494868014611
:1022700000BF00BF4A1E111EFCD100BF012001F0AB
:10228000A1F87248C17E243030F8114016E000F009
:10229000D3FF6E494868014600BF00BF4A1E111EA9
:1022A000FCD100BF00F0E2FF68494868014600BF6A
:1022B00000BF4A1E111EFCD100BF641E002CE6D1D7
:1022C0006248C17E1C30405C441E1AE0E8B201F056
:1022D00079F800F0B1FF5D494868014600BF00BFD2
:1022E0004A1E111EFCD100BF00F0C0FF57494868CC
:1022F000014600BF00BF4A1E111EFCD100BF6D0881
:10230000641E002CE2D15148C17E343030F81140B7
:10231000002C4ED0E8B201F055F800F08DFF4B498B
:102320004868014600BF00BF4A1E111EFCD100BF15
:1023300000F09CFF45494868014600BF00BF4A1EA7
:10234000111EFCD100BF012001F03CF8641E16E014
:1023500000F072FF3D494868014600BF00BF4A1EB9
:10236000111EFCD100BF00F081FF384948680146CA
:1023700000BF00BF4A1E111EFCD100BF641E002C0E
:10238000E6D101F00FF800F057FF304948680146E8
:1023900000BF00BF4A1E111EFCD100BF00F066FF47
:1023A0002A494868014600BF00BF4A1E111EFCD1E1
:1023B0001AE000F0F7FFE8B201F004F800F03CFF8B
:1023C00022494868014600BF00BF4A1E111EFCD1C9
:1023D00000BF00F04BFF1D494868014600BF00BF29
:1023E0004A1E111EFCD100BF00F026FF17494868A5
:1023F000014600BF00BF4A1E111EFCD100BF00F005
:1024000035FF12494868014600BF00BF4A1E111E31
:10241000FCD100BF00F0B6FF00F00EFF0B4948688A
:10242000014600BF00BF4A1E111EFCD100BF00F0D4
:102430001DFF06494868014600BF00BF4A1E111E25
:10244000FCD100BF012000F0BDFF70BDF8000020EE
:1024500070B500F0A7FF00F0EFFE6649486801463E
:1024600000BF00BF4A1E111EFCD100BF00F0FEFEDF
:1024700060494868014600BF00BF4A1E111EFCD1DA
:1024800000BF00F07FFF00F0D7FE5A4948680146C0
:1024900000BF00BF4A1E111EFCD100BF00F0E6FEC7
:1024A00054494868014600BF00BF4A1E111EFCD1B6
:1024B00000BF00F0C1FE4F494868014600BF00BFA1
:1024C0004A1E111EFCD100BF00F0D0FE49494868E9
:1024D000014600BF00BF4A1E111EFCD100BF454887
:1024E000C57E16E000F0A8FE42494868014600BFDC
:1024F00000BF4A1E111EFCD100BF00F0B7FE3D49CF
:102500004868014600BF00BF4A1E111EFCD100BF33
:102510006D1E002DE6D100241F251CE000F08CFE6E
:1025200034494868014600BF00BF4A1E111EFCD155
:1025300000BF00F055FF064600F098FE2D494868A0
:10254000014600BF00BF4A1E111EFCD100BF44EA75
:10255000C67464086D1E002DE0D100F023FF00F06A
:102560006BFE24494868014600BF00BF4A1E111E89
:10257000FCD100BF00F034FF064600F077FE1D4995
:102580004868014600BF00BF4A1E111EFCD100BFB3
:1025900044EAC67400F050FE16494868014600BF80
:1025A00000BF4A1E111EFCD100BF00F05FFE1149A2
:1025B0004868014600BF00BF4A1E111EFCD100BF83
:1025C00000F0E0FE00F038FE0A494868014600BF0E
:1025D00000BF4A1E111EFCD100BF00F047FE054996
:1025E0004868014600BF00BF4A1E111EFCD100BF53
:1025F000204670BDF80000202DE9F05F04460F462C
:10260000904604F03F0606B9402604F0400010B1A1
:1026100000F0C8FE01E000F0B5FE36E017F801ABAF
:1026200000254FF0080924E00AF0FF0000F0CAFE80
:1026300000F002FE17494868014600BF00BF4A1E6D
:10264000111EFCD100BF00F0CBFE834600F00EFE51
:1026500010494868014600BF00BF4A1E111EFCD148
:1026600000BF4FEA5A0A6D0845EACB15A9F10109E6
:10267000761EB9F1000F01D0002ED5D125FA09F54B
:1026800004F0800008B108F8015B002EC6D1BDE857
:10269000F09F0000F800002070B504460D46064883
:1026A000407820B12946204600F008F870BD294640
:1026B000204600F049F9F9E7F80000202DE9F0473D
:1026C0000646884600F06EFE00F0B6FD00BF00BF73
:1026D00000F0CCFD00BF00BF00F054FE00F0ACFDE8
:1026E00000BF00BF00F0C2FD00BF00BF00F0A4FDAE
:1026F00000BF00BF00F0BAFD00BF00BF9048C47E1D
:1027000008E000F099FD00BF00BF00F0AFFD00BF82
:1027100000BF641E002CF4D1C6F3470000F052FE47
:1027200000F08AFD00BF00BF00F05AFE074600F02F
:102730009DFD00BF00BF4FEA4709C6F3870000F0C8
:1027400041FE00F079FD00BF00BF00F049FE0746E2
:1027500000F08CFD00BF00BF49EA0709C6F3C700BF
:1027600000F030FE00F068FD00BF00BF00F038FE52
:10277000074600F07BFD00BF00BF49EA8709B9F1B9
:10278000010F0AD000F00EFE00F056FD00BF00BFA2
:1027900000F06CFD00BF00BFA1E006F002000028C1
:1027A00052D000251F240EE000F046FD00BF00BF00
:1027B00000F016FE074600F059FD00BF00BF45EAD5
:1027C000C7756D08641E002CEED15D48817EC07E09
:1027D000081A441E14B300F02FFD00BF00BF00F024
:1027E000FFFD074600F042FD00BF00BF641E08E089
:1027F00000F022FD00BF00BF00F038FD00BF00BFA9
:10280000641E002CF4D100F0CDFD00F015FD00BFDA
:1028100000BF00F02BFD00BF00BF0DE000F0C2FDC7
:1028200000F00AFD00BF00BF00F0DAFD074600F02F
:102830001DFD00BF00BF00BF45EAC775B8F1000F1E
:102840004CD0C8F8005049E0D8F800501F240CE0E4
:10285000E8B200F0B7FD00F0EFFC00BF00BF00F0F1
:1028600005FD00BF00BF6D08641E002CF0D1344888
:10287000817EC07E081A441E14B3E8B200F0A2FDA7
:1028800000F0DAFC00BF00BF00F0F0FC00BF00BFAA
:10289000641E08E000F0D0FC00BF00BF00F0E6FCC2
:1028A00000BF00BF641E002CF4D100F07BFD00F0DF
:1028B000C3FC00BF00BF00F0D9FC00BF00BF0DE0AB
:1028C00000F070FDE8B200F07DFD00F0B5FC00BF47
:1028D00000BF00F0CBFC00BF00BF00BF00BF00F096
:1028E000ABFC00BF00BF00F0C1FC00BF00BF00F0A8
:1028F00049FD00F0A1FC00BF00BF00F0B7FC00BF25
:1029000000BF012000F05EFD06F0800020B100BF96
:102910000C4840680A4988600948047B08E000F0D8
:102920008BFC00BF00BF00F0A1FC00BF00BF00BFD8
:10293000201EA4F10104F2D109F0FF00BDE8F087E8
:10294000F8000020001000E02DE9F0470646894617
:1029500000F028FD00F070FCFE494868014600BF09
:1029600000BF4A1E111EFCD100BF00F07FFCF949D8
:102970004868014600BF00BF4A1E111EFCD100BFBF
:1029800000F000FD00F058FCF2494868014600BF25
:1029900000BF4A1E111EFCD100BF00F067FCED49CC
:1029A0004868014600BF00BF4A1E111EFCD100BF8F
:1029B00000F042FCE7494868014600BF00BF4A1EDC
:1029C000111EFCD100BF00F051FCE24948680146ED
:1029D00000BF00BF4A1E111EFCD100BFDD48C47EEF
:1029E00016E000F029FCDB494868014600BF00BF43
:1029F0004A1E111EFCD100BF00F038FCD5494868C2
:102A0000014600BF00BF4A1E111EFCD100BF641E5C
:102A1000002CE6D1C6F3470000F0D4FC00F00CFC1B
:102A2000CC494868014600BF00BF4A1E111EFCD1B8
:102A300000BF00F0D5FC074600F018FCC549486807
:102A4000014600BF00BF4A1E111EFCD100BF4FEA65
:102A50004708C6F3870000F0B5FC00F0EDFBBD4968
:102A60004868014600BF00BF4A1E111EFCD100BFCE
:102A700000F0B6FC074600F0F9FBB649486801468D
:102A800000BF00BF4A1E111EFCD100BF48EA070864
:102A9000C6F3C70000F096FC00F0CEFBAD494868D5
:102AA000014600BF00BF4A1E111EFCD100BF00F04E
:102AB00097FC074600F0DAFBA6494868014600BFCC
:102AC00000BF4A1E111EFCD100BF48EA8708B8F1BA
:102AD000010F18D000F066FC00F0AEFB9D4948687D
:102AE000014600BF00BF4A1E111EFCD100BF00F00E
:102AF000BDFB98494868014600BF00BF4A1E111E31
:102B0000FCD100BF2FE106F00200002874D00025A0
:102B10001F241CE000F090FB8E494868014600BF6E
:102B200000BF4A1E111EFCD100BF00F059FC074631
:102B300000F09CFB87494868014600BF00BF4A1E61
:102B4000111EFCD100BF45EAC7756D08641E002C3C
:102B5000E0D18048817EC07E081A441E002C4CD0F3
:102B600000F06AFB7B494868014600BF00BF4A1E6F
:102B7000111EFCD100BF00F033FC074600F076FBCD
:102B800074494868014600BF00BF4A1E111EFCD1AF
:102B900000BF641E16E000F04FFB6E494868014616
:102BA00000BF00BF4A1E111EFCD100BF00F05EFB3B
:102BB00068494868014600BF00BF4A1E111EFCD18B
:102BC00000BF641E002CE6D100F0ECFB00F034FBEB
:102BD00060494868014600BF00BF4A1E111EFCD173
:102BE00000BF00F043FB5B494868014600BF00BFDF
:102BF0004A1E111EFCD11BE022E000F0D3FB00F0C6
:102C00001BFB54494868014600BF00BF4A1E111E05
:102C1000FCD100BF00F0E4FB074600F027FB4D4964
:102C20004868014600BF00BF4A1E111EFCD100BF0C
:102C300045EAC775B9F1000F01D0C9F8005091E01D
:102C4000D9F800501F241AE0E8B200F0BBFB00F0F6
:102C5000F3FA40494868014600BF00BF4A1E111EF2
:102C6000FCD100BF00F002FB3A494868014600BFB2
:102C700000BF4A1E111EFCD100BF6D08641E002C4F
:102C8000E2D13448817EC07E081A441E002C4BD00D
:102C9000E8B200F097FB00F0CFFA2E4948680146F1
:102CA00000BF00BF4A1E111EFCD100BF00F0DEFABB
:102CB00028494868014600BF00BF4A1E111EFCD1CA
:102CC00000BF641E16E000F0B7FA224948680146CA
:102CD00000BF00BF4A1E111EFCD100BF00F0C6FAA3
:102CE0001C494868014600BF00BF4A1E111EFCD1A6
:102CF00000BF641E002CE6D100F054FB00F09CFAEB
:102D000014494868014600BF00BF4A1E111EFCD18D
:102D100000BF00F0ABFA0F494868014600BF00BF92
:102D20004A1E111EFCD11DE000F03CFBE8B200F091
:102D300049FB00F081FA07494868014600BF00BF1F
:102D40004A1E111EFCD100BF00F090FA01494868EC
:102D5000014601E0F800002000BF00BF4A1E111E1E
:102D6000FCD100BF00BF00F067FA2C49486801465B
:102D700000BF00BF4A1E111EFCD100BF00F076FA52
:102D800026494868014600BF00BF4A1E111EFCD1FB
:102D900000BF00F0F7FA00F04FFA204948680146FA
:102DA00000BF00BF4A1E111EFCD100BF00F05EFA3A
:102DB0001A494868014600BF00BF4A1E111EFCD1D7
:102DC00000BF012000F0FEFA06F0800020B100BF35
:102DD00013484068114988601048047B15E000F0F2
:102DE0002BFA0E494868014600BF00BF4A1E111E5B
:102DF000FCD100BF00F03AFA08494868014600BF1C
:102E000000BF4A1E111EFCD100BF201EA4F1010408
:102E1000E5D108F0FF00BDE8F0870000F8000020D1
:102E2000001000E070B5054600F0BCFA00F004FAAE
:102E3000B0494868014600BF00BF4A1E111EFCD1C0
:102E400000BF00F013FAAB494868014600BF00BF5D
:102E50004A1E111EFCD100BF00F094FA00F0ECF9FC
:102E6000A4494868014600BF00BF4A1E111EFCD19C
:102E700000BF00F0FBF99F494868014600BF00BF52
:102E80004A1E111EFCD100BF00F0D6F999494868CE
:102E9000014600BF00BF4A1E111EFCD100BF00F05A
:102EA000E5F994494868014600BF00BF4A1E111E5B
:102EB000FCD100BF8F48C47E16E000F0BDF98D49FB
:102EC0004868014600BF00BF4A1E111EFCD100BF6A
:102ED00000F0CCF987494868014600BF00BF4A1E90
:102EE000111EFCD100BF641E002CE6D1002000F0B2
:102EF00069FA00F0A1F97F494868014600BF00BFA8
:102F00004A1E111EFCD100BF00F0B0F97949486893
:102F1000014600BF00BF4A1E111EFCD100BF00F0D9
:102F20008BF974494868014600BF00BF4A1E111E54
:102F3000FCD100BF00F09AF96E494868014600BF15
:102F400000BF4A1E111EFCD100BF00F075F969498F
:102F50004868014600BF00BF4A1E111EFCD100BFD9
:102F600000F084F963494868014600BF00BF4A1E6B
:102F7000111EFCD100BF1F241AE0E8B200F022FAB3
:102F800000F05AF95B494868014600BF00BF4A1E7D
:102F9000111EFCD100BF00F069F95649486801468E
:102FA00000BF00BF4A1E111EFCD100BF6D08641E89
:102FB000002CE2D14F48817EC07E081A441E002CAE
:102FC0004BD0E8B200F0FEF900F036F94949486804
:102FD000014600BF00BF4A1E111EFCD100BF00F019
:102FE00045F944494868014600BF00BF4A1E111E0A
:102FF000FCD100BF641E16E000F01EF93D49486890
:10300000014600BF00BF4A1E111EFCD100BF00F0E8
:103010002DF938494868014600BF00BF4A1E111EFD
:10302000FCD100BF641E002CE6D100F0BBF900F01B
:1030300003F930494868014600BF00BF4A1E111E0F
:10304000FCD100BF00F012F92A494868014600BFD0
:1030500000BF4A1E111EFCD11AE000F0A3F9E8B22D
:1030600000F0B0F900F0E8F822494868014600BFD6
:1030700000BF4A1E111EFCD100BF00F0F7F81D4929
:103080004868014600BF00BF4A1E111EFCD100BFA8
:1030900000F0D2F817494868014600BF00BF4A1E39
:1030A000111EFCD100BF00F0E1F81249486801464A
:1030B00000BF00BF4A1E111EFCD100BF00F062F924
:1030C00000F0BAF80B494868014600BF00BF4A1E2D
:1030D000111EFCD100BF00F0C9F80649486801463E
:1030E00000BF00BF4A1E111EFCD100BF012000F02E
:1030F00069F970BDF800002010B51748806940F0EC
:1031000008001549886104201449086014491348CF
:103110001438FEF721FD1048806940F008000E4980
:10312000886108150D4908600E490C481438FEF7EF
:1031300013FD0948806940F0080007498861C814F8
:1031400006490860084905481438FEF705FD00F0F7
:1031500037F800F02DF810BD00100240140C0140AB
:10316000307D0008347D0008387D000804200149C6
:1031700008607047140C0140042001490860704742
:10318000100C014000B5024600F01AF8074800781C
:1031900020F00100054908704FF0E020006940F080
:1031A00001004FF0E021086100BD00000100002097
:1031B0004FF400600149086070470000100C0140A6
:1031C0004FF480600149086070470000140C014012
:1031D0004FF480600149086070470000100C014006
:1031E00000B50246FFF7C8FF0F48007840F0010025
:1031F0000D49087002F0010050B14FF0E020006965
:1032000020F001004FF0E0210861FFF7E1FF09E045
:103210004FF0E020006940F001004FF0E02108612C
:10322000FFF7CEFF00BD0000010000202020014973
:103230000860704714080140202001490860704769
:10324000140801402020014908607047140801401B
:1032500002480068C0F34010704700000C080140AD
:1032600020200149086070471008014020200149D2
:10327000086070471008014020200149086070472D
:10328000100801400448006800F4804008B10120A3
:1032900070470020FCE70000080C0140044800686B
:1032A00000F4804008B1012070470020FCE70000D6
:1032B000080C014000F0010121B14FF48041044AA3
:1032C000116004E04FF48041014A121D1160704703
:1032D000100C014000F0010121B14FF48041044A7B
:1032E000116004E04FF48041014A121D11607047E3
:1032F000100C014000BF0748006820F0706040F0EB
:103300000060044908604FF4804002490C310860B5
:1033100000BF7047040C014000BF0748006820F060
:10332000706040F04070044908604FF480400249EA
:103330001031086000BF7047040C014000BF07480F
:10334000006820F0706040F04070044908604FF45D
:10335000804002491031086000BF7047040C0140F2
:1033600000BF0748006820F0706040F040700449DA
:1033700008604FF4804002491031086000BF704778
:10338000040C01404FF48040014908607047000080
:10339000140C014002480068C0F380307047000000
:1033A000080C01404FF4804001490860704700005C
:1033B000100C014002480068C0F3C01070470000C4
:1033C0000C08014000F0010119B18021034A11608D
:1033D00003E08021014A121D11607047100801406E
:1033E00002480068C0F380107047000008080140E0
:1033F00002480068C0F3C0007047000008080140A0
:1034000010B544F220000E490860802008600D4984
:103410000B481038FEF7A0FB0B4909481038FEF79F
:103420009BFB0A4906481038FEF796FB002004F083
:1034300031FC6420FEF714FA012004F02BFC10BDCF
:1034400010080140607D0008687D0008647D000868
:1034500010B508490848FEF77FFB08490648FEF703
:103460007BFB07490448FEF777FB06490248FEF755
:1034700073FB10BD707D0008000801406C7D0008E2
:10348000747D0008787D000810B544F220000D49D5
:1034900008600D490B481038FEF75EFB0B490948E0
:1034A0001038FEF759FB0A4906481038FEF754FB5E
:1034B000002004F0EFFB6420FEF7D2F9012004F0B5
:1034C000E9FB10BD10080140547D0008587D00083C
:1034D0005C7D000810B50748806940F0040005498C
:1034E0008861881504490860044903481438FEF7C8
:1034F00033FB10BD0010024014080140507D00084D
:103500002DE9F04707468A4600250120FFF7D2FE45
:10351000FFF78CFED6494868014600BF00BF4A1E2F
:10352000111EFCD100BFFFF79BFED1494868014640
:1035300000BF00BF4A1E111EFCD100BF3C46E0B2D6
:10354000FFF7B8FEFFF772FEC9494868014600BFA1
:1035500000BF4A1E111EFCD100BFFFF781FEC44907
:103560004868014600BF00BF4A1E111EFCD100BFC3
:1035700025447C08E0B2FFF79DFEFFF757FEBC49EB
:103580004868014600BF00BF4A1E111EFCD100BFA3
:10359000FFF766FEB6494868014600BF00BF4A1EF5
:1035A000111EFCD100BF2544BC08E0B2FFF782FE2B
:1035B000FFF73CFEAE494868014600BF00BF4A1E07
:1035C000111EFCD100BFFFF74BFEA9494868014618
:1035D00000BF00BF4A1E111EFCD100BF2544FC08DD
:1035E000E0B2FFF767FEFFF721FEA14948680146F8
:1035F00000BF00BF4A1E111EFCD100BFFFF730FE06
:103600009B494868014600BF00BF4A1E111EFCD1FD
:1036100000BF2544E8B2FFF74DFEFFF707FE9449CF
:103620004868014600BF00BF4A1E111EFCD100BF02
:10363000FFF716FE8E494868014600BF00BF4A1ECC
:10364000111EFCD100BF0020FFF734FEFFF7EEFD96
:1036500087494868014600BF00BF4A1E111EFCD1C1
:1036600000BFFFF7FDFD82494868014600BF00BF6B
:103670004A1E111EFCD100BF0120FFF71BFEFFF701
:10368000D5FD7B494868014600BF00BF4A1E111E98
:10369000FCD100BFFFF7E4FD75494868014600BF53
:1036A00000BF4A1E111EFCD100BF00BF00BF00BFFB
:1036B0007048006820F0706040F000606D4908605C
:1036C0004FF480406B490C31086000BF00BF684870
:1036D000067E16E0FFF7AAFD65494868014600BF6F
:1036E00000BF4A1E111EFCD100BFFFF7B9FD6049A3
:1036F0004868014600BF00BF4A1E111EFCD100BF32
:10370000761E002EE6D1FFF791FD59494868014623
:1037100000BF00BF4A1E111EFCD100BFFFF7B2FD63
:103720000446FFF79DFD52494868014600BF00BFAF
:103730004A1E111EFCD100BFA046FFF777FD4C4981
:103740004868014600BF00BF4A1E111EFCD100BFE1
:10375000FFF798FD0446FFF783FD45494868014699
:1037600000BF00BF4A1E111EFCD100BF48EA44083A
:10377000FFF75CFD3E494868014600BF00BF4A1E96
:10378000111EFCD100BFFFF77DFD0446FFF768FD69
:1037900037494868014600BF00BF4A1E111EFCD1D0
:1037A00000BF48EA84083248067E16E0FFF73EFD77
:1037B0002F494868014600BF00BF4A1E111EFCD1B8
:1037C00000BFFFF74DFD2A494868014600BF00BF12
:1037D0004A1E111EFCD100BF761E002EE6D1FFF757
:1037E0009BFDD146002520261DE009F0FF00FFF7D4
:1037F00061FDFFF71BFD1E494868014600BF00BF81
:103800004A1E111EFCD100BFFFF72AFD1849486867
:10381000014600BF00BF4A1E111EFCD100BF4D442F
:103820004FEA5909761E002EDFD1E8B2FFF742FDBC
:10383000FFF7FCFC0E494868014600BF00BF4A1E66
:10384000111EFCD100BFFFF70BFD09494868014676
:1038500000BF00BF4A1E111EFCD100BFFFF75CFD78
:103860000120FFF727FD08F0FF00BDE8F08700000A
:10387000F8000020040C01402DE9F0470746884677
:10388000914607F03F0404B9402407F08000002867
:103890002AD026E0002508261DE0FFF7D3FC2649A4
:1038A0004868014600BF00BF4A1E111EFCD100BF80
:1038B000FFF7F4FC8246FFF7DFFC1F49486801462A
:1038C00000BF00BF4A1E111EFCD100BF6D0845EAB3
:1038D000CA15761E641E0EB1002CDED1F54009F823
:1038E000015B002CD6D125E022E018F8015B082608
:1038F0001BE0E8B2FFF7EEFCFFF7A4FC0E494868B6
:10390000014600BF00BF4A1E111EFCD100BFFFF7D9
:10391000B3FC09494868014600BF00BF4A1E111E9A
:10392000FCD100BF6D08761E641E0EB1002CE0D1E4
:10393000002CDAD1BDE8F087F800002070B504460D
:103940000D460648407820B12946204600F008F888
:1039500070BD2946204600F09BF9F9E7F8000020E9
:103960002DE9F04706468A4600270120FFF7B2FC02
:10397000FFF768FC00BF00BFFFF77EFC00BF00BF81
:103980003546E8B2FFF7A6FCFFF75CFC00BF00BFBE
:10399000FFF772FC00BF00BF2F447508E8B2FFF7C5
:1039A00099FCFFF74FFC00BF00BFFFF765FC00BFAD
:1039B00000BF2F44B508E8B2FFF78CFCFFF742FCCC
:1039C00000BF00BFFFF758FC00BF00BF2F44F50841
:1039D000E8B2FFF77FFCFFF735FC00BF00BFFFF741
:1039E0004BFC00BF00BF2F44F8B2FFF773FCFFF79A
:1039F00029FC00BF00BFFFF73FFC00BF00BF002055
:103A0000FFF768FCFFF71EFC00BF00BFFFF734FCA8
:103A100000BF00BF0120FFF75DFCFFF713FC00BFF4
:103A200000BFFFF729FC00BF00BFFFF763FC96480B
:103A3000047E08E0FFF706FC00BF00BFFFF71CFC98
:103A400000BF00BF641E002CF4D1FFF7FBFB00BFDA
:103A500000BFFFF723FC0546FFF70EFC00BF00BFC9
:103A6000A846FFF7EFFB00BF00BFFFF717FC0546B6
:103A7000FFF702FC00BF00BF48EA4508FFF7E2FB82
:103A800000BF00BFFFF70AFC0546FFF7F5FB00BFCC
:103A900000BF48EA8508B8F1010F7DD106F00200A9
:103AA00000283ED0A1460027202410E0FFF7CAFBE3
:103AB00000BF00BFFFF7F2FB0546FFF7DDFB00BFCD
:103AC00000BF2F444FEA590949EAC579641E002C0A
:103AD000ECD1FFF7B7FB00BF00BFFFF7DFFB0546E8
:103AE000FFF7CAFB00BF00BF87EA050000F0010036
:103AF00008B14FF00808BAF1000F01D0CAF80090E1
:103B00006148047E08E0FFF79DFB00BF00BFFFF7A0
:103B1000B3FB00BF00BF641E002CF4D1FFF720FCF4
:103B200032E05948047E08E0FFF78CFB00BF00BF7D
:103B3000FFF7A2FB00BF00BF641E002CF4D1FFF70B
:103B40000FFCDAF80090002720240FE009F0FF00B6
:103B5000FFF7C0FBFFF776FB00BF00BFFFF78CFB52
:103B600000BF00BF4F444FEA5909641E002CEDD13D
:103B7000F8B2FFF7AFFBFFF765FB00BF00BFFFF731
:103B80007BFB00BF00BF00BF06F0800030B100BF6C
:103B90003E4840683C4900E019E088603A48047BB0
:103BA00074B10020FFF796FB08E0FFF74BFB00BF66
:103BB00000BFFFF761FB00BF00BF641E002CF4D103
:103BC0000120FFF787FB08F0FF00BDE8F087B8F1A0
:103BD000020F02D0B8F1040F3ED12B48407E78B1DD
:103BE00006F0020060B1212408E0FFF72BFB00BFC4
:103BF00000BFFFF741FB00BF00BF641E002CF4D1E3
:103C00002148047E08E0FFF71DFB00BF00BFFFF75F
:103C100033FB00BF00BF641E002CF4D1FFF7A0FBF4
:103C20001948407E90B106F0020078B90020FFF7F5
:103C300051FB212408E0FFF705FB00BF00BFFFF7A1
:103C40001BFB00BF00BF641E002CF4D10120FFF756
:103C500041FB08F0FF00B8E70B48007E00F12104AB
:103C600008E0FFF7EFFA00BF00BFFFF705FB00BF5A
:103C700000BF641E002CF4D1FFF772FB0120FFF798
:103C800029FB08F0FF00A0E7F8000020001000E08A
:103C900003B587B0002003900120FFF71BFBFFF75F
:103CA000D1FAFE48406801900198009000BF00BF23
:103CB0000098401E00900028FAD100BFFFF7DCFA00
:103CC000F648406801900198009000BF00BF00983E
:103CD000401E00900028FAD100BF07980590059873
:103CE000C0B20190FFF7F6FAFFF7ACFAEB48406874
:103CF00001900198009000BF00BF0098401E009006
:103D00000028FAD100BFFFF7B7FAE44840680190F5
:103D10000198009000BF00BF0098401E009000284E
:103D2000FAD100BF0599039808440390079840080A
:103D300005900598C0B20190FFF7CCFAFFF782FA20
:103D4000D648406801900198009000BF00BF0098DD
:103D5000401E00900028FAD100BFFFF78DFACF482F
:103D6000406801900198009000BF00BF0098401E7D
:103D700000900028FAD100BF0599039808440390E9
:103D80000798800805900598C0B20190FFF7A2FA45
:103D9000FFF758FAC148406801900198009000BFB1
:103DA00000BF0098401E00900028FAD100BFFFF726
:103DB00063FABA48406801900198009000BF00BFC4
:103DC0000098401E00900028FAD100BF0599039882
:103DD000084403900798C00805900598C0B2019068
:103DE000FFF778FAFFF72EFAAC4840680190019887
:103DF000009000BF00BF0098401E00900028FAD13C
:103E000000BFFFF739FAA54840680190019800907B
:103E100000BF00BF0098401E00900028FAD100BFEC
:103E200005990398084403900398C0B20190FFF7E6
:103E300051FAFFF707FA99484068019001980090FD
:103E400000BF00BF0098401E00900028FAD100BFBC
:103E5000FFF712FA9148406801900198009000BF66
:103E600000BF0098401E00900028FAD100BFFFF765
:103E700031FAFFF7E7F9894840680190019800900E
:103E800000BF00BF0098401E00900028FAD100BF7C
:103E9000FFF7F2F98148406801900198009000BF57
:103EA00000BF0098401E00900028FAD100BF0120FA
:103EB000FFF710FAFFF7C6F97848406801900198BB
:103EC000009000BF00BF0098401E00900028FAD16B
:103ED00000BFFFF7D1F97148406801900198009048
:103EE00000BF00BF0098401E00900028FAD100BF1C
:103EF000FFF700FA6948007E029020E0FFF7A2F980
:103F00006648406801900198009000BF00BF00988B
:103F1000401E00900028FAD100BFFFF7ADF95F48BE
:103F2000406801900198009000BF00BF0098401EBB
:103F300000900028FAD100BF0298401E029002981B
:103F40000028DBD1FFF77EF95448406801900198C2
:103F5000009000BF00BF0098401E00900028FAD1DA
:103F600000BFFFF79BF90590FFF786F94B484068C3
:103F700001900198009000BF00BF0098401E009083
:103F80000028FAD100BF05980690FFF75BF9434877
:103F9000406801900198009000BF00BF0098401E4B
:103FA00000900028FAD100BFFFF778F90590FFF7DD
:103FB00063F93A48406801900198009000BF00BF43
:103FC0000098401E00900028FAD100BFDDE90510DE
:103FD00040EA41000690FFF735F93048406801900B
:103FE0000198009000BF00BF0098401E009000287C
:103FF000FAD100BFFFF752F90590FFF73DF92748C6
:10400000406801900198009000BF00BF0098401EDA
:1040100000900028FAD100BFDDE9051040EA8100D8
:1040200006900698012872D1079800F00200002837
:104030006ED00020049003902020029032E0FFF721
:1040400001F91648406801900198009000BF00BF38
:104050000098401E00900028FAD100BFFFF71EF91B
:104060000590FFF709F90D4840680190019800900C
:1040700000BF00BF0098401E00900028FAD100BF8A
:104080000599039808440390049840080490DDE9DA
:10409000040140EAC1700490029801E0F800002099
:1040A000401E029002980028C9D1FFF7CBF8F148D2
:1040B000406801900198009000BF00BF0098401E2A
:1040C00000900028FAD100BFFFF7E8F80590FFF74D
:1040D000D3F8E848406801900198009000BF00BF05
:1040E0000098401E00900028FAD100BF059903985F
:1040F000484000F0010008B108200690089810B16F
:10410000089904980860DB48007E029022E0E9E00C
:1041100026E0FFF797F8D748406801900198009093
:1041200000BF00BF0098401E00900028FAD100BFD9
:10413000FFF7A2F8CF48406801900198009000BFB7
:1041400000BF0098401E00900028FAD100BF0298DE
:10415000401E029002980028DBD1FFF701F984E0AD
:10416000C448007E029020E0FFF76CF8C148406828
:1041700001900198009000BF00BF0098401E009081
:104180000028FAD100BFFFF777F8BA4840680190DD
:104190000198009000BF00BF0098401E00900028CA
:1041A000FAD100BF0298401E029002980028DBD18D
:1041B000FFF7D6F8089800680490002003902020AC
:1041C00002902CE00498C0B20190FFF783F8FFF74B
:1041D00039F8A848406801900198009000BF00BFDE
:1041E0000098401E00900028FAD100BFFFF744F865
:1041F000A048406801900198009000BF00BF00985F
:10420000401E00900028FAD100BFDDE903010844F8
:1042100003900498400804900298401E029002986F
:104220000028CFD10398C0B20190FFF753F8FFF7F1
:1042300009F89048406801900198009000BF00BFC5
:104240000098401E00900028FAD100BFFFF714F834
:104250008848406801900198009000BF00BF009816
:10426000401E00900028FAD100BF079800F080009F
:1042700020B100BF804840687E4988607D48007B4F
:104280000290029838B30020FFF724F820E0FEF7F0
:10429000D9FF7848406801900198009000BF00BFA6
:1042A0000098401E00900028FAD100BFFEF7E4FFFE
:1042B0007048406801900198009000BF00BF0098CE
:1042C000401E00900028FAD100BF0298401E0290C4
:1042D00002980028DBD10120FEF7FCFF0698C0B24F
:1042E00009B000BD0698022802D0069804287DD1A6
:1042F0006048407E50B3079800F0020030B32120A0
:10430000029020E0FEF79EFF5A4840680190019815
:10431000009000BF00BF0098401E00900028FAD116
:1043200000BFFEF7A9FF5348406801900198009034
:1043300000BF00BF0098401E00900028FAD100BFC7
:104340000298401E029002980028DBD14948007E66
:10435000029020E0FEF776FF464840680190019801
:10436000009000BF00BF0098401E00900028FAD1C6
:1043700000BFFEF781FF3F48406801900198009020
:1043800000BF00BF0098401E00900028FAD100BF77
:104390000298401E029002980028DBD1FEF7E0FF51
:1043A0003448407E78B3079800F0020058BB0020E4
:1043B000FEF790FF2120029022E0FEF743FF2D48F8
:1043C000406801900198009000BF00BF0098401E17
:1043D00000900028FAD100BFFEF74EFF2548406844
:1043E00001900198009000BF00BF00E011E000982C
:1043F000401E00900028F8D100BF0298401E029095
:1044000002980028D9D10120FEF764FF0698C0B2B7
:1044100066E71848007E2130029020E0FEF712FF88
:104420001448406801900198009000BF00BF0098B8
:10443000401E00900028FAD100BFFEF71DFF0D4876
:10444000406801900198009000BF00BF0098401E96
:1044500000900028FAD100BF0298401E02900298F6
:104460000028DBD1FEF77CFF0120FEF733FF069822
:10447000C0B235E7F8000020001000E02DE9F0415F
:1044800005460C46002600272DE017B914F8016BED
:10449000082706F0010030B100BF4FF480401549F5
:1044A000086000BF07E000BF4FF480401149091DBC
:1044B000086000BF00BFFEF7C5FE0F49486801460F
:1044C00000BF00BF4A1E111EFCD100BFFEF7D4FE84
:1044D00009494868014600BF00BF4A1E111EFCD1B1
:1044E00000BF76087F1E281EA5F10105CDD1BDE8CD
:1044F000F0810000100C0140F800002010B500F021
:1045000001F810BD08B5002000903748006840F45D
:1045100080303549086000BF3348006800F400303F
:1045200018B90098B0F5A06FF6D12F48006800F4D4
:10453000003040B92C48006820F480302A490860D7
:104540000120009001E0002000902848006840F021
:104550001000264908600846006820F00300086043
:104560000846006840F0020008601F4840681E4985
:1045700048600846406848600846406840F48060EB
:1045800048600846406820F47C104860009828B1D4
:104590000846406840F4D000486005E01248406892
:1045A00040F4A020104948600F48006840F0807037
:1045B0000D49086000BF0C48006800F0007000283A
:1045C000F9D00948406820F00300074948600846D0
:1045D000406840F00200486000BF0348406800F0B7
:1045E0000C000828F9D108BD00100240002002404C
:1045F000042808D14FF0E021096941F004014FF08F
:10460000E022116107E04FF0E021096921F0040187
:104610004FF0E0221161704700B51A480078401E43
:10462000184908701848007800F0020080B1164858
:10463000007820F00200144908701248007800F059
:10464000010010B1FEF798FD0CE0FEF78FFD09E0C8
:104650000C48007800F0070010B9FEF78DFD01E06E
:10466000FEF784FD0848007800F0010048B10548D5
:10467000007800F0030010B9FEF7AAFD01E0FEF794
:104680009FFD00BD000000200100002070B517490B
:10469000481EB0F1807F00D31BE0481E4FF0E0229F
:1046A000506150170F22002804DB13071C0E104B1B
:1046B0001C5406E013071D0E0E4B00F00F04241FC0
:1046C0001D5500BF00204FF0E022906107201061CF
:1046D00000BF6FF00400FFF78BFF4FF0E020006990
:1046E00020F001004FF0E021086170BD40771B0011
:1046F00000E400E018ED00E010B5002100200022E9
:10470000214B5B6803F00C0121B1042906D0082974
:1047100028D107E01D4B1E4C236027E01D4B1C4C8D
:10472000236023E0184B5B6803F47010164B5B6842
:1047300003F48032022303EB904022B9164B43432B
:10474000134C23600DE0104B5B6803F4003323B17E
:10475000124B43430E4C236003E00E4B43430C4C7F
:10476000236003E0094B0A4C236000BF00BF064BE7
:104770005B68C3F303130A4CE15C054B1B68CB4039
:10478000034C236010BD00000010024000127A00AC
:104790000C00002000366E0100093D00001BB70030
:1047A0001000002010B51348006840F001001149C6
:1047B000086008464068104908400E4948600846AD
:1047C00000680E4908400B4908600846006820F45C
:1047D000802008600846406820F4FE0048604FF4DE
:1047E0001F008860FFF78AFE4FF0006004490860F0
:1047F00010BD0000001002400000FFF8FFFFF6FEB1
:1048000008ED00E070B505461248007840F002005F
:104810001049087005F0020058B10F48006800F513
:1048200080600D4908600D484FF4806182690C4832
:10483000904705F0010060B14FF48061094801F034
:104840000BFB0446002C04DD044821464269054860
:10485000904770BD0100002050000020447E0008F9
:10486000F8220020F826002070B504460D46034AC1
:104870002946204600F008F970BD0000B47D00080C
:1048800008B5024800F011FD009008BDB47D000895
:1048900008B5024800F00CFD009008BDB47D00088A
:1048A00010B5024800F04CFD10BD0000B47D0008BA
:1048B00008B5024800F051FD009008BDB47D000825
:1048C00010B5024800F0B3FD10BD0000B47D000833
:1048D00010B5024800F0B8FD10BD0000B47D00081E
:1048E00010B504460249204600F0E6FE10BD000067
:1048F000B47D000810B504460249204600F072FF5E
:1049000010BD0000B47D000870B504460D46034A92
:104910002946204601F0ABF870BD0000B47D0008C8
:1049200070B504460D46034A2946204601F030F989
:1049300070BD0000B47D000810B504460249204651
:1049400001F0A1F910BD0000B47D000870B5044667
:104950000D461646034B32462946204601F006FA1C
:1049600070BD0000B47D000810B5024801F033FAB4
:1049700010BD0000B47D000870B504460D46034A22
:104980002946204600F080F870BD00000C7E00082B
:1049900008B5024800F089FC009008BD0C7E0008B4
:1049A00008B5024800F084FC009008BD0C7E0008A9
:1049B00010B5024800F0C4FC10BD00000C7E0008D9
:1049C00008B5024800F0C9FC009008BD0C7E000844
:1049D00010B5024800F02BFD10BD00000C7E000851
:1049E00010B5024800F030FD10BD00000C7E00083C
:1049F00010B504460249204600F05EFE10BD0000DE
:104A00000C7E000810B504460249204600F0EAFE7C
:104A100010BD00000C7E000870B504460D46034A28
:104A20002946204601F023F870BD00000C7E0008E6
:104A300070B504460D46034A2946204601F0A8F801
:104A400070BD00000C7E000810B5044602492046E7
:104A500001F019F910BD00000C7E000870B5044685
:104A60000D461646034B32462946204601F07EF994
:104A700070BD00000C7E000810B5024801F0ABF9D3
:104A800010BD00000C7E00082DE9FE4F07460D46C4
:104A90001446206BC07A00F0020018B94FF0FF30C6
:104AA000BDE8FE8F0020009080468346F8B215389E
:104AB00006287CD2DFE800F0A3DC032C4E6CA5B105
:104AC000606B90F8210010B16FF00100E8E7012061
:104AD000616B81F82100616B81F82000606880893A
:104AE00040F081006168888110E0606B90F82000E0
:104AF00060B16068808920F0800061688881002052
:104B0000616B81F82000616B81F821000020C7E70C
:104B10006068808920F0C00061688881A06A88B1DF
:104B2000606B90F8210068B16068808A20F0800096
:104B300061688882A16A0868016821F0010101604A
:104B400000BF00BF0020616B81F82000616B81F81D
:104B50002100A5E76068808920F0200061688881D5
:104B6000E06A80B1206B407968B16068808A20F08B
:104B7000400061688882E16A0868016821F00101EB
:104B8000016000BF00BF0021206B4171002087E75A
:104B90006068808920F0E00061688881A06A98B12F
:104BA000606B90F8210078B16068808A00E0C2E014
:104BB00020F0800061688882A16A0868016821F09D
:104BC0000101016000BF00BFE06A80B1206B407945
:104BD00068B16068808A20F0400061688882E16A7C
:104BE0000868016821F00101016000BF00BF0021D9
:104BF000206B41710020616B81F8210050E7E06873
:104C000010B94FF0FF304BE7BDB1206BC0680628EC
:104C100006D0E2689188032310680222FDF727F886
:104C2000206BC07A40F00800216BC87260688089F0
:104C300040F008006168888118E06068808920F091
:104C4000080061688881206BC07A20F00800216B21
:104C5000C872206BC068062808D0E06830B1E268EE
:104C60009188002310681A46FDF701F8002017E725
:104C7000206910B94FF0FF3012E7E5B3206BC06830
:104C800006280AD0206BC068042806D022699188C3
:104C9000002310680122FCF7EAFF206BC07A40F085
:104CA0001000216BC8726068808A40F00100616862
:104CB00088826068008A40F040006168088260680D
:104CC000808940F0100061688881206B407918B1BC
:104CD000E06A08B1012000E0002028B960688089FE
:104CE00040F02000616888816068808940F004009D
:104CF000616888811DE0FFE76068808920F004001A
:104D000061688881206BC07A20F01000216BC87226
:104D1000206BC06806280CD0206BC068042808D01F
:104D2000206930B122699188002310681A46FCF787
:104D30009EFF0020B4E600BF00BF206B407918B989
:104D4000606B90F8210010B16FF00100A8E6606878
:104D5000808900F0080038B16068008800F04000E9
:104D600010B96FF001009BE6F8B2152872D2DFE8A7
:104D700000F0C90B0E1D20252AC9C9C9C9C9C9C956
:104D8000C9C9373B697EB80001200290BDE0207898
:104D9000C0F3400020B148F4006848F4807802E095
:104DA0006FF006007CE602200290AEE06FF0060095
:104DB00076E64BF0080B04200290A6E04BF0020BC5
:104DC00005200290A1E02078C0F3401010B14BF014
:104DD000200B02E06FF0060062E60620029094E0ED
:104DE000616B4D8300205BE6206BC068052824D0F2
:104DF00015B36068808A40F0040061688882D4F846
:104E000008A0FE48B0FBFAFA012605E00AFB06F00E
:104E1000A84200D902E0761CFF2EF7D900BFB6F5F4
:104E2000807F02D14FF0FF303AE66068008B20F0BF
:104E3000FF0030436168088302E04FF0FF302FE647
:104E400000202DE6206BC06806280BD1FF2D02D96B
:104E5000C01F25E656E06068008BC0B22843616839
:104E6000088302E04FF0FF301AE6002018E6206BBE
:104E7000C068062830D1D4F808A0E048B0FBFAFAA0
:104E8000012619E00AFB06F040006421484305EBC7
:104E9000051101EB4101B0EB410F0CD20AFB06F00A
:104EA00040006421484305EB051101EB4511B0EBCF
:104EB000410F00D902E0761C402EE3D300BF402E04
:104EC00002D14FF0FF30EBE56068008B20F0FF006F
:104ED00030436168088302E04FF0FF30E0E50020D6
:104EE000DEE5206BC068062807D14DB16068808A76
:104EF00040F010006168888202E04FF0FF30CFE59B
:104F00000020CDE56FF00300CAE500BF07F4E060C4
:104F100060B1B0F5807F13D0B0F5E06F1DD107F41C
:104F2000405010B96FF00800BAE519E007F440509E
:104F300028B148F02008009840F4805000900FE01D
:104F400007F4405010B16FF00800A9E548F02008C0
:104F5000009840F48050009002E06FF008009FE558
:104F600000BF07F4405030B1B0F5805F04D0B0F519
:104F7000005F0BD105E00CE0009840F480600090E9
:104F800007E0009840F4C060009002E06FF0090074
:104F900086E500BF07F4404048B1B0F5804F07D028
:104FA000B0F5004F07D0B0F5404F0AD106E00BE056
:104FB00048F4005808E048F4405805E048F48058A8
:104FC00002E06FF00A006BE500BF07F4403048B123
:104FD000B0F5803F09D0B0F5003F13D0B0F5403FA9
:104FE0002ED11CE04FF000092DE02078C0F3C01056
:104FF00020B14FF480394BF4807B02E06FF00B005E
:105000004EE520E02088C0F3002020B14FF40039A5
:105010004BF4C06B02E06FF00B0041E513E0207829
:10502000C0F3C01040B12088C0F3002020B14FF47D
:1050300040394BF4E06B02E06FF00B0030E502E02A
:105040006FF00B002CE500BF029802281DD107F479
:10505000802018B1B0F5802F04D100E005E048F4BD
:10506000806802E06FF00C001AE500BF07F4002032
:1050700018B1B0F5002F04D100E005E048F4007845
:1050800002E06FF00D000BE500BFA06800EBC0016F
:1050900001EB0010A900B0FBF1F06421B0FBF1F1CD
:1050A000A06800EBC00202EB0010AA00B0FBF2F017
:1050B000A26802EBC20303EB0212AB00B2FBF3F2F5
:1050C0006423B2FBF3F202EBC20303EB0212A0EB88
:1050D0008200322202EB00106422B0FBF2FA61F38C
:1050E0001F1AA06800011FFA8AF1B0FBF1F0000955
:1050F000019064210198484305EB051101EB410142
:10510000B0EB410F09D264210198484305EB05112A
:1051100001EB4511B0EB410F02D86FF00700BFE47F
:105120006068808920F40050616888816168A1F816
:1051300008A00298216BC860206BC0F81090206B0B
:10514000C068062809D1E06830B1E268918803237D
:1051500010680222FCF78BFD18E0206BC07A00F08B
:10516000080048B1E06880B1E268918803231068C4
:105170000222FCF77CFD08E0E06830B1E26891882B
:10518000002310681A46FCF772FD00BF00BF206BB9
:10519000C068042802D006280BD100E000BF2069B7
:1051A00030B122699188002310681A46FCF75FFD30
:1051B00018E0206BC07A00F0100048B1206980B17F
:1051C00022699188002310680122FCF750FD08E055
:1051D000206930B122699188002310681A46FCF7D3
:1051E00046FD00BF00BF6069D0B1206BC0680228D7
:1051F00002D006280BD100BF626901E000CA9A3BC9
:105200009188032310680222FCF731FD07E06269F0
:105210009188002310681A46FCF729FD00BF00BFE3
:10522000A069A0B1B9F5803F02D0B9F5403F07D1E0
:10523000A2699188032310680222FCF718FD06E09A
:10524000A2699188002310681A46FCF710FDE069F6
:10525000A0B1B9F5003F02D0B9F5403F07D1E269EE
:105260009188002310680122FCF701FD06E0E26945
:105270009188002310680122FCF7F9FC009861680E
:1052800088816168A1F810806168A1F814B0606835
:10529000808940F4005061688881206BC07A40F0BA
:1052A0000400216BC872002010E4014608687047B2
:1052B0000CB50146019820F001000190086B0069CF
:1052C00020B1086B0069B0F5803F0ED1C86960B1AC
:1052D000CB6998881A689368C34003F0010323B927
:1052E000019820F00100401C0190019820F002007C
:1052F0000190019820F008000190019820F004002E
:1053000001900198009A60F300020092019842080F
:10531000009862F34100009001988208009862F3BF
:10532000820000900198C208009862F3C3000090C8
:1053300001980209009862F31F10009000980CBDBC
:105340000146C86A30B1CA6A10684268486B006892
:10535000801A7047486B0069FBE70CB50146486B43
:1053600090F8210028B1019820F00100401C019024
:1053700008E048680088012222EA9012019862F34E
:1053800000000190086B4279019862F3410001909E
:10539000086B8279019862F382000190086BC279F0
:1053A000019862F3C3000190086B027A019862F3DE
:1053B00004100190086B427A019862F34510019045
:1053C000086B827A019862F3861001900198009A26
:1053D00060F30002009201984208009862F34100D5
:1053E000009001988208009862F382000090019872
:1053F000C208009862F3C300009001980209009867
:1054000062F30410009001984209009862F345107D
:10541000009001988209009862F38610009001982C
:10542000C209009862F3DF10009000980CBD01469D
:10543000886A30B18A6A10684268486B4068801A8E
:105440007047486B4069FBE72DE9F041044660680E
:10545000068800270025A84606F020006168898993
:105460000840002860D0206B407938B96068808897
:105470000121206BC17145F0200555E0206BC0680B
:10548000022806D1606BC069012802D1606880885B
:1054900002E06068B0F80480606B8268501C636B47
:1054A000986082F800806068878907F4806050B94E
:1054B00007F4805038B14FEA2821606B8268501C95
:1054C000636B98601170606B0069401C616B0861D0
:1054D000606B0069616B0968884225D160688089CA
:1054E00020F01000616888810021206B4171206BE1
:1054F000C068022816D1606BC7690020616BC86163
:10550000012F04D0022F05D0032F09D105E045F06B
:10551000010506E045F0020503E045F0040500E062
:1055200000BF01E045F0020506F0100061688989BE
:10553000084018B16068808845F0400506F080009A
:10554000616889890840002863D0606B90F820006A
:1055500030B16068808940F001006168888158E05E
:10556000606B4068616B4969884222D0206BC068DB
:10557000022807D1606BC069022803D1606BB0F8C4
:105580001A8016E0606BC168481C626BD06091F8AD
:1055900000806068878907F4806050B907F4805004
:1055A00038B1606BC168481C626BD060087848EA0B
:1055B0000028606B4069401C616B48616068A0F81E
:1055C0000480606B4068616B4969884221D16068E2
:1055D000808920F08000616888816068808940F05F
:1055E0004000616888810020616B81F82100206B98
:1055F000C06802280BD1606BC069012809D1206BFB
:10560000C07A00F0100020B945F0010501E045F036
:10561000010506F0400061688989084038B160687A
:10562000808920F040006168888145F0080506F017
:10563000080030B1606880880121206BC17145F09D
:10564000200506F0020030B1606880880121206BDF
:10565000417245F4807506F0010030B160688088C1
:105660000121206B817245F4007506F4807050B101
:105670006068008820F48070616808800121206BD8
:10568000017245F0800506F4007038B1606800884A
:1056900020F400706168088045F4806525B1206BB6
:1056A000006808B1012000E0002018B1206B0168FB
:1056B00028468847BDE8F08170B505460C46206B4A
:1056C000C07A00F0010008B1002070BD206B0560B9
:1056D0000020216B08710021206B4171206B8171CA
:1056E000206BC171206B0172206B4172206B817243
:1056F0000020216BC860616B81F821002421606B60
:10570000FAF729FD608CFCF78DF9E06820B1E168BB
:1057100008680121FCF7E8FA206920B121690868CE
:105720000121FCF7E1FA606920B161690868012193
:10573000FCF7DAFAA06920B1A16908680121FCF739
:10574000D3FAE06920B1E16908680121FCF7CCFADD
:105750000120216BC8720020B7E700001D49884274
:1057600005D11D49C96841F480411B4AD1601B49DC
:10577000884205D11849096941F40031164A11617E
:105780001749884205D11449096941F48021124A18
:10579000116100BF00BF00BF00BF0E49884205D1A4
:1057A0000D49C96821F480410B4AD1600B498842F8
:1057B00005D10949096921F40031074A11610849F5
:1057C000884205D10449096921F48021024A116106
:1057D00070470000003801400010024000440040C3
:1057E0000048004070B505460C4625B1012D69D032
:1057F000022D72D169E06068FFF7B0FF94F92400D0
:10580000002817DB00F01F0201219140714A430973
:1058100042F8231000BF00BF00BFBFF34F8F00BF8F
:1058200000BF00BF00BF00BF00BFBFF36F8F00BF4E
:1058300000BF00BF00BFE06A20B1E26A5179107971
:10584000FBF7B0FFA06A20B1A26A51791079FBF78B
:10585000A9FF61496068884205D16048806920F4E9
:1058600080405E4988615E496068884205D15B4836
:10587000C06920F400305949C8615A4960688842BB
:1058800005D15648C06920F480205449C8610020E1
:10589000216B08710021206B4171206B8171206B9D
:1058A000C171206B0172206B4172206B81720020EC
:1058B000616B81F82100206BC07A20F00200216B1F
:1058C000C87283E06FF0030070BD206BC07A00F0F7
:1058D000010018B94FF0FF30F6E774E0206BC07A92
:1058E00000F0020008B10020EEE70020216B0871F3
:1058F0000021206B4171206B8171206BC171206B85
:105900000172206B4172206B81720020616B81F803
:105910002100616B4883616BC861616B81F8200075
:10592000216BC860216B08610320216BC8722A4972
:105930006068884205D12948806940F48040274941
:10594000886127496068884205D12448C06940F4CD
:1059500000302249C86123496068884205D11F4848
:10596000C06940F480201D49C86194F924000028D2
:1059700007DB00F01F02012191401B4A430942F856
:10598000231000BF94F92400002809DB00F01F0257
:10599000012191404209920002F1E022C2F8001177
:1059A00000BFE06A20B1E26A51791079FBF77AFE14
:1059B000A06A20B1A26A51791079FBF773FE606882
:1059C000FFF7CCFE02E06FF003007DE700BF002090
:1059D0007AE7000080E100E000380140001002405A
:1059E000004400400048004080E200E070B50446FA
:1059F000E16A0868416819B1606B006800B170BD68
:105A00006068808920F01000616888810025206B23
:105A1000C068022813D1606BC6690020616BC86141
:105A2000012E04D0022E04D0032E06D103E001255E
:105A300004E0022502E0042500E000BF00E00225AA
:105A4000606B0068616B08610021206B41716068C8
:105A5000808940F0200061688881206B006820B157
:105A60001DB1206B01682846884700BFC7E72DE9B4
:105A7000F04706460F46144606B11FB96FF0040002
:105A8000BDE8F087206BC07A00F0040010B94FF039
:105A9000FF30F5E7206B4079012801D1C01EEFE708
:105AA0006068808920F0200061688881606B0760F1
:105AB0000021206B0172206B4172206BC171206B41
:105AC0008172606B86600020616B08610121206B30
:105AD00041718025206BC068022804D1606BC069C9
